{
  "_format": "hh-sol-artifact-1",
  "contractName": "Yotta",
  "sourceName": "contracts/Yotta.sol",
  "abi": [
    {
      "inputs": [
        {
          "internalType": "uint256",
          "name": "_schoolId",
          "type": "uint256"
        }
      ],
      "name": "getSchool",
      "outputs": [
        {
          "internalType": "string",
          "name": "",
          "type": "string"
        },
        {
          "internalType": "string",
          "name": "",
          "type": "string"
        },
        {
          "internalType": "string",
          "name": "",
          "type": "string"
        },
        {
          "internalType": "string",
          "name": "",
          "type": "string"
        },
        {
          "internalType": "address",
          "name": "",
          "type": "address"
        },
        {
          "internalType": "uint256",
          "name": "",
          "type": "uint256"
        }
      ],
      "stateMutability": "view",
      "type": "function"
    },
    {
      "inputs": [
        {
          "internalType": "string",
          "name": "_name",
          "type": "string"
        },
        {
          "internalType": "string",
          "name": "_adresse_physique",
          "type": "string"
        },
        {
          "internalType": "string",
          "name": "_telephone",
          "type": "string"
        },
        {
          "internalType": "string",
          "name": "_adresse_email",
          "type": "string"
        },
        {
          "internalType": "string",
          "name": "_type_ecole",
          "type": "string"
        },
        {
          "internalType": "address",
          "name": "_owner",
          "type": "address"
        },
        {
          "internalType": "uint256",
          "name": "_numero_d_enregistrement",
          "type": "uint256"
        }
      ],
      "name": "registerSchool",
      "outputs": [],
      "stateMutability": "nonpayable",
      "type": "function"
    },
    {
      "inputs": [
        {
          "internalType": "string",
          "name": "_name",
          "type": "string"
        },
        {
          "internalType": "uint256",
          "name": "_age",
          "type": "uint256"
        },
        {
          "internalType": "string",
          "name": "_diplome",
          "type": "string"
        },
        {
          "internalType": "uint256",
          "name": "_schoolId",
          "type": "uint256"
        }
      ],
      "name": "registerStudent",
      "outputs": [],
      "stateMutability": "nonpayable",
      "type": "function"
    },
    {
      "inputs": [],
      "name": "schoolCount",
      "outputs": [
        {
          "internalType": "uint256",
          "name": "",
          "type": "uint256"
        }
      ],
      "stateMutability": "view",
      "type": "function"
    },
    {
      "inputs": [
        {
          "internalType": "uint256",
          "name": "",
          "type": "uint256"
        }
      ],
      "name": "schools",
      "outputs": [
        {
          "internalType": "string",
          "name": "nom_ecole",
          "type": "string"
        },
        {
          "internalType": "string",
          "name": "adresse_physique",
          "type": "string"
        },
        {
          "internalType": "string",
          "name": "telephone",
          "type": "string"
        },
        {
          "internalType": "string",
          "name": "adresse_email",
          "type": "string"
        },
        {
          "internalType": "string",
          "name": "type_ecole",
          "type": "string"
        },
        {
          "internalType": "address",
          "name": "owner",
          "type": "address"
        },
        {
          "internalType": "uint256",
          "name": "numero_d_enregistrement",
          "type": "uint256"
        }
      ],
      "stateMutability": "view",
      "type": "function"
    },
    {
      "inputs": [],
      "name": "studentCount",
      "outputs": [
        {
          "internalType": "uint256",
          "name": "",
          "type": "uint256"
        }
      ],
      "stateMutability": "view",
      "type": "function"
    },
    {
      "inputs": [
        {
          "internalType": "uint256",
          "name": "",
          "type": "uint256"
        }
      ],
      "name": "students",
      "outputs": [
        {
          "internalType": "string",
          "name": "name",
          "type": "string"
        },
        {
          "internalType": "uint256",
          "name": "age",
          "type": "uint256"
        },
        {
          "internalType": "string",
          "name": "diplome",
          "type": "string"
        },
        {
          "internalType": "uint256",
          "name": "schoolId",
          "type": "uint256"
        }
      ],
      "stateMutability": "view",
      "type": "function"
    }
  ],
  "bytecode": "0x608060405234801561001057600080fd5b506115a3806100206000396000f3fe608060405234801561001057600080fd5b506004361061007d5760003560e01c806397a8b49d1161005b57806397a8b49d146101095780639a3f7a9314610125578063d38e7ea914610141578063e581f9ee146101765761007d565b806306ead22e1461008257806328d88890146100b5578063719c0d04146100d3575b600080fd5b61009c60048036038101906100979190610bf4565b610194565b6040516100ac9493929190610cc0565b60405180910390f35b6100bd6102d4565b6040516100ca9190610d13565b60405180910390f35b6100ed60048036038101906100e89190610bf4565b6102da565b6040516101009796959493929190610d6f565b60405180910390f35b610123600480360381019061011e9190610f36565b6105e4565b005b61013f600480360381019061013a9190611001565b6106cc565b005b61015b60048036038101906101569190610bf4565b61080c565b60405161016d9695949392919061112f565b60405180910390f35b61017e610ba4565b60405161018b9190610d13565b60405180910390f35b60016020528060005260406000206000915090508060000180546101b7906111db565b80601f01602080910402602001604051908101604052809291908181526020018280546101e3906111db565b80156102305780601f1061020557610100808354040283529160200191610230565b820191906000526020600020905b81548152906001019060200180831161021357829003601f168201915b50505050509080600101549080600201805461024b906111db565b80601f0160208091040260200160405190810160405280929190818152602001828054610277906111db565b80156102c45780601f10610299576101008083540402835291602001916102c4565b820191906000526020600020905b8154815290600101906020018083116102a757829003601f168201915b5050505050908060030154905084565b60025481565b60006020528060005260406000206000915090508060000180546102fd906111db565b80601f0160208091040260200160405190810160405280929190818152602001828054610329906111db565b80156103765780601f1061034b57610100808354040283529160200191610376565b820191906000526020600020905b81548152906001019060200180831161035957829003601f168201915b50505050509080600101805461038b906111db565b80601f01602080910402602001604051908101604052809291908181526020018280546103b7906111db565b80156104045780601f106103d957610100808354040283529160200191610404565b820191906000526020600020905b8154815290600101906020018083116103e757829003601f168201915b505050505090806002018054610419906111db565b80601f0160208091040260200160405190810160405280929190818152602001828054610445906111db565b80156104925780601f1061046757610100808354040283529160200191610492565b820191906000526020600020905b81548152906001019060200180831161047557829003601f168201915b5050505050908060030180546104a7906111db565b80601f01602080910402602001604051908101604052809291908181526020018280546104d3906111db565b80156105205780601f106104f557610100808354040283529160200191610520565b820191906000526020600020905b81548152906001019060200180831161050357829003601f168201915b505050505090806004018054610535906111db565b80601f0160208091040260200160405190810160405280929190818152602001828054610561906111db565b80156105ae5780601f10610583576101008083540402835291602001916105ae565b820191906000526020600020905b81548152906001019060200180831161059157829003601f168201915b5050505050908060050160009054906101000a900473ffffffffffffffffffffffffffffffffffffffff16908060060154905087565b6000811180156105f657506002548111155b610635576040517f08c379a000000000000000000000000000000000000000000000000000000000815260040161062c90611258565b60405180910390fd5b60036000815480929190610648906112a7565b91905055506040518060800160405280858152602001848152602001838152602001828152506001600060035481526020019081526020016000206000820151816000019081610698919061149b565b506020820151816001015560408201518160020190816106b8919061149b565b506060820151816003015590505050505050565b600260008154809291906106df906112a7565b91905055506040518060e001604052808881526020018781526020018681526020018581526020018481526020018373ffffffffffffffffffffffffffffffffffffffff1681526020018281525060008060025481526020019081526020016000206000820151816000019081610756919061149b565b50602082015181600101908161076c919061149b565b506040820151816002019081610782919061149b565b506060820151816003019081610798919061149b565b5060808201518160040190816107ae919061149b565b5060a08201518160050160006101000a81548173ffffffffffffffffffffffffffffffffffffffff021916908373ffffffffffffffffffffffffffffffffffffffff16021790555060c0820151816006015590505050505050505050565b60608060608060008060008060008981526020019081526020016000206040518060e0016040529081600082018054610844906111db565b80601f0160208091040260200160405190810160405280929190818152602001828054610870906111db565b80156108bd5780601f10610892576101008083540402835291602001916108bd565b820191906000526020600020905b8154815290600101906020018083116108a057829003601f168201915b505050505081526020016001820180546108d6906111db565b80601f0160208091040260200160405190810160405280929190818152602001828054610902906111db565b801561094f5780601f106109245761010080835404028352916020019161094f565b820191906000526020600020905b81548152906001019060200180831161093257829003601f168201915b50505050508152602001600282018054610968906111db565b80601f0160208091040260200160405190810160405280929190818152602001828054610994906111db565b80156109e15780601f106109b6576101008083540402835291602001916109e1565b820191906000526020600020905b8154815290600101906020018083116109c457829003601f168201915b505050505081526020016003820180546109fa906111db565b80601f0160208091040260200160405190810160405280929190818152602001828054610a26906111db565b8015610a735780601f10610a4857610100808354040283529160200191610a73565b820191906000526020600020905b815481529060010190602001808311610a5657829003601f168201915b50505050508152602001600482018054610a8c906111db565b80601f0160208091040260200160405190810160405280929190818152602001828054610ab8906111db565b8015610b055780601f10610ada57610100808354040283529160200191610b05565b820191906000526020600020905b815481529060010190602001808311610ae857829003601f168201915b505050505081526020016005820160009054906101000a900473ffffffffffffffffffffffffffffffffffffffff1673ffffffffffffffffffffffffffffffffffffffff1673ffffffffffffffffffffffffffffffffffffffff168152602001600682015481525050905080600001518160200151826040015183606001518460a001518560c001519650965096509650965096505091939550919395565b60035481565b6000604051905090565b600080fd5b600080fd5b6000819050919050565b610bd181610bbe565b8114610bdc57600080fd5b50565b600081359050610bee81610bc8565b92915050565b600060208284031215610c0a57610c09610bb4565b5b6000610c1884828501610bdf565b91505092915050565b600081519050919050565b600082825260208201905092915050565b60005b83811015610c5b578082015181840152602081019050610c40565b60008484015250505050565b6000601f19601f8301169050919050565b6000610c8382610c21565b610c8d8185610c2c565b9350610c9d818560208601610c3d565b610ca681610c67565b840191505092915050565b610cba81610bbe565b82525050565b60006080820190508181036000830152610cda8187610c78565b9050610ce96020830186610cb1565b8181036040830152610cfb8185610c78565b9050610d0a6060830184610cb1565b95945050505050565b6000602082019050610d286000830184610cb1565b92915050565b600073ffffffffffffffffffffffffffffffffffffffff82169050919050565b6000610d5982610d2e565b9050919050565b610d6981610d4e565b82525050565b600060e0820190508181036000830152610d89818a610c78565b90508181036020830152610d9d8189610c78565b90508181036040830152610db18188610c78565b90508181036060830152610dc58187610c78565b90508181036080830152610dd98186610c78565b9050610de860a0830185610d60565b610df560c0830184610cb1565b98975050505050505050565b600080fd5b600080fd5b7f4e487b7100000000000000000000000000000000000000000000000000000000600052604160045260246000fd5b610e4382610c67565b810181811067ffffffffffffffff82111715610e6257610e61610e0b565b5b80604052505050565b6000610e75610baa565b9050610e818282610e3a565b919050565b600067ffffffffffffffff821115610ea157610ea0610e0b565b5b610eaa82610c67565b9050602081019050919050565b82818337600083830152505050565b6000610ed9610ed484610e86565b610e6b565b905082815260208101848484011115610ef557610ef4610e06565b5b610f00848285610eb7565b509392505050565b600082601f830112610f1d57610f1c610e01565b5b8135610f2d848260208601610ec6565b91505092915050565b60008060008060808587031215610f5057610f4f610bb4565b5b600085013567ffffffffffffffff811115610f6e57610f6d610bb9565b5b610f7a87828801610f08565b9450506020610f8b87828801610bdf565b935050604085013567ffffffffffffffff811115610fac57610fab610bb9565b5b610fb887828801610f08565b9250506060610fc987828801610bdf565b91505092959194509250565b610fde81610d4e565b8114610fe957600080fd5b50565b600081359050610ffb81610fd5565b92915050565b600080600080600080600060e0888a0312156110205761101f610bb4565b5b600088013567ffffffffffffffff81111561103e5761103d610bb9565b5b61104a8a828b01610f08565b975050602088013567ffffffffffffffff81111561106b5761106a610bb9565b5b6110778a828b01610f08565b965050604088013567ffffffffffffffff81111561109857611097610bb9565b5b6110a48a828b01610f08565b955050606088013567ffffffffffffffff8111156110c5576110c4610bb9565b5b6110d18a828b01610f08565b945050608088013567ffffffffffffffff8111156110f2576110f1610bb9565b5b6110fe8a828b01610f08565b93505060a061110f8a828b01610fec565b92505060c06111208a828b01610bdf565b91505092959891949750929550565b600060c08201905081810360008301526111498189610c78565b9050818103602083015261115d8188610c78565b905081810360408301526111718187610c78565b905081810360608301526111858186610c78565b90506111946080830185610d60565b6111a160a0830184610cb1565b979650505050505050565b7f4e487b7100000000000000000000000000000000000000000000000000000000600052602260045260246000fd5b600060028204905060018216806111f357607f821691505b602082108103611206576112056111ac565b5b50919050565b7f5363686f6f6c20646f6573206e6f742065786973740000000000000000000000600082015250565b6000611242601583610c2c565b915061124d8261120c565b602082019050919050565b6000602082019050818103600083015261127181611235565b9050919050565b7f4e487b7100000000000000000000000000000000000000000000000000000000600052601160045260246000fd5b60006112b282610bbe565b91507fffffffffffffffffffffffffffffffffffffffffffffffffffffffffffffffff82036112e4576112e3611278565b5b600182019050919050565b60008190508160005260206000209050919050565b60006020601f8301049050919050565b600082821b905092915050565b6000600883026113517fffffffffffffffffffffffffffffffffffffffffffffffffffffffffffffffff82611314565b61135b8683611314565b95508019841693508086168417925050509392505050565b6000819050919050565b600061139861139361138e84610bbe565b611373565b610bbe565b9050919050565b6000819050919050565b6113b28361137d565b6113c66113be8261139f565b848454611321565b825550505050565b600090565b6113db6113ce565b6113e68184846113a9565b505050565b5b8181101561140a576113ff6000826113d3565b6001810190506113ec565b5050565b601f82111561144f57611420816112ef565b61142984611304565b81016020851015611438578190505b61144c61144485611304565b8301826113eb565b50505b505050565b600082821c905092915050565b600061147260001984600802611454565b1980831691505092915050565b600061148b8383611461565b9150826002028217905092915050565b6114a482610c21565b67ffffffffffffffff8111156114bd576114bc610e0b565b5b6114c782546111db565b6114d282828561140e565b600060209050601f83116001811461150557600084156114f3578287015190505b6114fd858261147f565b865550611565565b601f198416611513866112ef565b60005b8281101561153b57848901518255600182019150602085019450602081019050611516565b868310156115585784890151611554601f891682611461565b8355505b6001600288020188555050505b50505050505056fea2646970667358221220e6bbd50c7bb78edce032bc79aea6f76048d18ec7a76ba6848ee2e9b77c32855864736f6c63430008180033",
  "linkReferences": {},
  "deployedLinkReferences": {}
}